{
  "address": "0xa513E6E4b8f2a923D98304ec87F64353C4D5C853",
  "abi": [
    {
      "inputs": [
        {
          "internalType": "contract IBEP20",
          "name": "_lp",
          "type": "address"
        },
        {
          "internalType": "contract IBEP20",
          "name": "_rewardToken",
          "type": "address"
        },
        {
          "internalType": "uint256",
          "name": "_rewardPerBlock",
          "type": "uint256"
        },
        {
          "internalType": "uint256",
          "name": "_startBlock",
          "type": "uint256"
        },
        {
          "internalType": "uint256",
          "name": "_bonusEndBlock",
          "type": "uint256"
        },
        {
          "internalType": "address",
          "name": "_adminAddress",
          "type": "address"
        },
        {
          "internalType": "address",
          "name": "_wbnb",
          "type": "address"
        }
      ],
      "stateMutability": "nonpayable",
      "type": "constructor"
    },
    {
      "anonymous": false,
      "inputs": [
        {
          "indexed": true,
          "internalType": "address",
          "name": "user",
          "type": "address"
        },
        {
          "indexed": false,
          "internalType": "uint256",
          "name": "amount",
          "type": "uint256"
        }
      ],
      "name": "Deposit",
      "type": "event"
    },
    {
      "anonymous": false,
      "inputs": [
        {
          "indexed": true,
          "internalType": "address",
          "name": "user",
          "type": "address"
        },
        {
          "indexed": false,
          "internalType": "uint256",
          "name": "amount",
          "type": "uint256"
        }
      ],
      "name": "EmergencyWithdraw",
      "type": "event"
    },
    {
      "anonymous": false,
      "inputs": [
        {
          "indexed": true,
          "internalType": "address",
          "name": "previousOwner",
          "type": "address"
        },
        {
          "indexed": true,
          "internalType": "address",
          "name": "newOwner",
          "type": "address"
        }
      ],
      "name": "OwnershipTransferred",
      "type": "event"
    },
    {
      "anonymous": false,
      "inputs": [
        {
          "indexed": true,
          "internalType": "address",
          "name": "user",
          "type": "address"
        },
        {
          "indexed": false,
          "internalType": "uint256",
          "name": "amount",
          "type": "uint256"
        }
      ],
      "name": "Withdraw",
      "type": "event"
    },
    {
      "inputs": [],
      "name": "WBNB",
      "outputs": [
        {
          "internalType": "address",
          "name": "",
          "type": "address"
        }
      ],
      "stateMutability": "view",
      "type": "function"
    },
    {
      "inputs": [],
      "name": "adminAddress",
      "outputs": [
        {
          "internalType": "address",
          "name": "",
          "type": "address"
        }
      ],
      "stateMutability": "view",
      "type": "function"
    },
    {
      "inputs": [],
      "name": "bonusEndBlock",
      "outputs": [
        {
          "internalType": "uint256",
          "name": "",
          "type": "uint256"
        }
      ],
      "stateMutability": "view",
      "type": "function"
    },
    {
      "inputs": [],
      "name": "deposit",
      "outputs": [],
      "stateMutability": "payable",
      "type": "function"
    },
    {
      "inputs": [
        {
          "internalType": "uint256",
          "name": "_amount",
          "type": "uint256"
        }
      ],
      "name": "emergencyRewardWithdraw",
      "outputs": [],
      "stateMutability": "nonpayable",
      "type": "function"
    },
    {
      "inputs": [],
      "name": "emergencyWithdraw",
      "outputs": [],
      "stateMutability": "nonpayable",
      "type": "function"
    },
    {
      "inputs": [
        {
          "internalType": "uint256",
          "name": "_from",
          "type": "uint256"
        },
        {
          "internalType": "uint256",
          "name": "_to",
          "type": "uint256"
        }
      ],
      "name": "getMultiplier",
      "outputs": [
        {
          "internalType": "uint256",
          "name": "",
          "type": "uint256"
        }
      ],
      "stateMutability": "view",
      "type": "function"
    },
    {
      "inputs": [],
      "name": "limitAmount",
      "outputs": [
        {
          "internalType": "uint256",
          "name": "",
          "type": "uint256"
        }
      ],
      "stateMutability": "view",
      "type": "function"
    },
    {
      "inputs": [],
      "name": "massUpdatePools",
      "outputs": [],
      "stateMutability": "nonpayable",
      "type": "function"
    },
    {
      "inputs": [],
      "name": "owner",
      "outputs": [
        {
          "internalType": "address",
          "name": "",
          "type": "address"
        }
      ],
      "stateMutability": "view",
      "type": "function"
    },
    {
      "inputs": [
        {
          "internalType": "address",
          "name": "_user",
          "type": "address"
        }
      ],
      "name": "pendingReward",
      "outputs": [
        {
          "internalType": "uint256",
          "name": "",
          "type": "uint256"
        }
      ],
      "stateMutability": "view",
      "type": "function"
    },
    {
      "inputs": [
        {
          "internalType": "uint256",
          "name": "",
          "type": "uint256"
        }
      ],
      "name": "poolInfo",
      "outputs": [
        {
          "internalType": "contract IBEP20",
          "name": "lpToken",
          "type": "address"
        },
        {
          "internalType": "uint256",
          "name": "allocPoint",
          "type": "uint256"
        },
        {
          "internalType": "uint256",
          "name": "lastRewardBlock",
          "type": "uint256"
        },
        {
          "internalType": "uint256",
          "name": "accCakePerShare",
          "type": "uint256"
        }
      ],
      "stateMutability": "view",
      "type": "function"
    },
    {
      "inputs": [
        {
          "internalType": "address",
          "name": "_blacklistAddress",
          "type": "address"
        }
      ],
      "name": "removeBlackList",
      "outputs": [],
      "stateMutability": "nonpayable",
      "type": "function"
    },
    {
      "inputs": [],
      "name": "renounceOwnership",
      "outputs": [],
      "stateMutability": "nonpayable",
      "type": "function"
    },
    {
      "inputs": [],
      "name": "rewardPerBlock",
      "outputs": [
        {
          "internalType": "uint256",
          "name": "",
          "type": "uint256"
        }
      ],
      "stateMutability": "view",
      "type": "function"
    },
    {
      "inputs": [],
      "name": "rewardToken",
      "outputs": [
        {
          "internalType": "contract IBEP20",
          "name": "",
          "type": "address"
        }
      ],
      "stateMutability": "view",
      "type": "function"
    },
    {
      "inputs": [
        {
          "internalType": "address",
          "name": "_adminAddress",
          "type": "address"
        }
      ],
      "name": "setAdmin",
      "outputs": [],
      "stateMutability": "nonpayable",
      "type": "function"
    },
    {
      "inputs": [
        {
          "internalType": "address",
          "name": "_blacklistAddress",
          "type": "address"
        }
      ],
      "name": "setBlackList",
      "outputs": [],
      "stateMutability": "nonpayable",
      "type": "function"
    },
    {
      "inputs": [
        {
          "internalType": "uint256",
          "name": "_amount",
          "type": "uint256"
        }
      ],
      "name": "setLimitAmount",
      "outputs": [],
      "stateMutability": "nonpayable",
      "type": "function"
    },
    {
      "inputs": [],
      "name": "startBlock",
      "outputs": [
        {
          "internalType": "uint256",
          "name": "",
          "type": "uint256"
        }
      ],
      "stateMutability": "view",
      "type": "function"
    },
    {
      "inputs": [],
      "name": "totalAllocPoint",
      "outputs": [
        {
          "internalType": "uint256",
          "name": "",
          "type": "uint256"
        }
      ],
      "stateMutability": "view",
      "type": "function"
    },
    {
      "inputs": [
        {
          "internalType": "address",
          "name": "newOwner",
          "type": "address"
        }
      ],
      "name": "transferOwnership",
      "outputs": [],
      "stateMutability": "nonpayable",
      "type": "function"
    },
    {
      "inputs": [
        {
          "internalType": "uint256",
          "name": "_pid",
          "type": "uint256"
        }
      ],
      "name": "updatePool",
      "outputs": [],
      "stateMutability": "nonpayable",
      "type": "function"
    },
    {
      "inputs": [
        {
          "internalType": "address",
          "name": "",
          "type": "address"
        }
      ],
      "name": "userInfo",
      "outputs": [
        {
          "internalType": "uint256",
          "name": "amount",
          "type": "uint256"
        },
        {
          "internalType": "uint256",
          "name": "rewardDebt",
          "type": "uint256"
        },
        {
          "internalType": "bool",
          "name": "inBlackList",
          "type": "bool"
        }
      ],
      "stateMutability": "view",
      "type": "function"
    },
    {
      "inputs": [
        {
          "internalType": "uint256",
          "name": "_amount",
          "type": "uint256"
        }
      ],
      "name": "withdraw",
      "outputs": [],
      "stateMutability": "nonpayable",
      "type": "function"
    },
    {
      "stateMutability": "payable",
      "type": "receive"
    }
  ],
  "transactionHash": "0x2aaf2bfd90f5d306b5b9e9d52a6d8dbcffd61254f4de735ebe4570324f486374",
  "args": [
    "0x5FbDB2315678afecb367f032d93F642f64180aa3",
    "0xe7f1725E7734CE288F8367e1Bb143E90bb3F0512",
    1000,
    10,
    1010,
    "0xf39Fd6e51aad88F6F4ce6aB8827279cffFb92266",
    "0x5FbDB2315678afecb367f032d93F642f64180aa3"
  ],
  "numDeployments": 1,
  "solcInputHash": "f571f7f3fdd0d675aa1f1952c0d17e4a",
  "bytecode": "0x60a0604052678ac7230489e80000600655600060075534801561002157600080fd5b5060405162002bd538038062002bd5833981810160405260e081101561004657600080fd5b810190808051906020019092919080519060200190929190805190602001909291908051906020019092919080519060200190929190805190602001909291908051906020019092919050505060006100a36102f260201b60201c565b9050806000806101000a81548173ffffffffffffffffffffffffffffffffffffffff021916908373ffffffffffffffffffffffffffffffffffffffff1602179055508073ffffffffffffffffffffffffffffffffffffffff16600073ffffffffffffffffffffffffffffffffffffffff167f8be0079c531659141344cd1fd0a4f28419497f9722a3daafe3b4186f6b6457e060405160405180910390a35085600160006101000a81548173ffffffffffffffffffffffffffffffffffffffff021916908373ffffffffffffffffffffffffffffffffffffffff16021790555084600381905550836008819055508260098190555081600260006101000a81548173ffffffffffffffffffffffffffffffffffffffff021916908373ffffffffffffffffffffffffffffffffffffffff1602179055508073ffffffffffffffffffffffffffffffffffffffff1660808173ffffffffffffffffffffffffffffffffffffffff1660601b81525050600460405180608001604052808973ffffffffffffffffffffffffffffffffffffffff1681526020016103e8815260200160085481526020016000815250908060018154018082558091505060019003906000526020600020906004020160009091909190915060008201518160000160006101000a81548173ffffffffffffffffffffffffffffffffffffffff021916908373ffffffffffffffffffffffffffffffffffffffff16021790555060208201518160010155604082015181600201556060820151816003015550506103e8600781905550505050505050506102fa565b600033905090565b60805160601c6128a96200032c600039806101715280610b1352806114b85280611717528061179852506128a96000f3fe60806040526004361061016a5760003560e01c806372700241116100d1578063d0e30db01161008a578063f2fde38b11610064578063f2fde38b1461069a578063f40f0f52146106eb578063f7c618c114610750578063fc6f946814610791576101c6565b8063d0e30db014610628578063db2e21bc14610632578063e4997dc514610649576101c6565b806372700241146104a657806378abafaf146104f75780638ae39cac146105225780638da5cb5b1461054d5780638dbb1e3a1461058e5780638dd95002146105e7576101c6565b80633279beab116101235780633279beab1461038657806348cd4cb1146103c157806351eb05a6146103ec578063630b5ba114610427578063704b6c021461043e578063715018a61461048f576101c6565b80631526fe27146101cb57806317caf6f1146102455780631959a002146102705780631aed6553146102e55780631f107a45146103105780632e1a7d4d1461034b576101c6565b366101c6577f000000000000000000000000000000000000000000000000000000000000000073ffffffffffffffffffffffffffffffffffffffff163373ffffffffffffffffffffffffffffffffffffffff16146101c457fe5b005b600080fd5b3480156101d757600080fd5b50610204600480360360208110156101ee57600080fd5b81019080803590602001909291905050506107d2565b604051808573ffffffffffffffffffffffffffffffffffffffff16815260200184815260200183815260200182815260200194505050505060405180910390f35b34801561025157600080fd5b5061025a61082f565b6040518082815260200191505060405180910390f35b34801561027c57600080fd5b506102bf6004803603602081101561029357600080fd5b81019080803573ffffffffffffffffffffffffffffffffffffffff169060200190929190505050610835565b604051808481526020018381526020018215158152602001935050505060405180910390f35b3480156102f157600080fd5b506102fa61086c565b6040518082815260200191505060405180910390f35b34801561031c57600080fd5b506103496004803603602081101561033357600080fd5b8101908080359060200190929190505050610872565b005b34801561035757600080fd5b506103846004803603602081101561036e57600080fd5b8101908080359060200190929190505050610944565b005b34801561039257600080fd5b506103bf600480360360208110156103a957600080fd5b8101908080359060200190929190505050610c35565b005b3480156103cd57600080fd5b506103d6610e85565b6040518082815260200191505060405180910390f35b3480156103f857600080fd5b506104256004803603602081101561040f57600080fd5b8101908080359060200190929190505050610e8b565b005b34801561043357600080fd5b5061043c61104c565b005b34801561044a57600080fd5b5061048d6004803603602081101561046157600080fd5b81019080803573ffffffffffffffffffffffffffffffffffffffff169060200190929190505050611079565b005b34801561049b57600080fd5b506104a4611185565b005b3480156104b257600080fd5b506104f5600480360360208110156104c957600080fd5b81019080803573ffffffffffffffffffffffffffffffffffffffff16906020019092919050505061130b565b005b34801561050357600080fd5b5061050c61142c565b6040518082815260200191505060405180910390f35b34801561052e57600080fd5b50610537611432565b6040518082815260200191505060405180910390f35b34801561055957600080fd5b50610562611438565b604051808273ffffffffffffffffffffffffffffffffffffffff16815260200191505060405180910390f35b34801561059a57600080fd5b506105d1600480360360408110156105b157600080fd5b810190808035906020019092919080359060200190929190505050611461565b6040518082815260200191505060405180910390f35b3480156105f357600080fd5b506105fc6114b6565b604051808273ffffffffffffffffffffffffffffffffffffffff16815260200191505060405180910390f35b6106306114da565b005b34801561063e57600080fd5b50610647611914565b005b34801561065557600080fd5b506106986004803603602081101561066c57600080fd5b81019080803573ffffffffffffffffffffffffffffffffffffffff169060200190929190505050611a34565b005b3480156106a657600080fd5b506106e9600480360360208110156106bd57600080fd5b81019080803573ffffffffffffffffffffffffffffffffffffffff169060200190929190505050611b55565b005b3480156106f757600080fd5b5061073a6004803603602081101561070e57600080fd5b81019080803573ffffffffffffffffffffffffffffffffffffffff169060200190929190505050611c29565b6040518082815260200191505060405180910390f35b34801561075c57600080fd5b50610765611e5e565b604051808273ffffffffffffffffffffffffffffffffffffffff16815260200191505060405180910390f35b34801561079d57600080fd5b506107a6611e84565b604051808273ffffffffffffffffffffffffffffffffffffffff16815260200191505060405180910390f35b600481815481106107df57fe5b90600052602060002090600402016000915090508060000160009054906101000a900473ffffffffffffffffffffffffffffffffffffffff16908060010154908060020154908060030154905084565b60075481565b60056020528060005260406000206000915090508060000154908060010154908060020160009054906101000a900460ff16905083565b60095481565b61087a611eaa565b73ffffffffffffffffffffffffffffffffffffffff1660008054906101000a900473ffffffffffffffffffffffffffffffffffffffff1673ffffffffffffffffffffffffffffffffffffffff161461093a576040517f08c379a00000000000000000000000000000000000000000000000000000000081526004018080602001828103825260208152602001807f4f776e61626c653a2063616c6c6572206973206e6f7420746865206f776e657281525060200191505060405180910390fd5b8060068190555050565b6000600460008154811061095457fe5b906000526020600020906004020190506000600560003373ffffffffffffffffffffffffffffffffffffffff1673ffffffffffffffffffffffffffffffffffffffff16815260200190815260200160002090508281600001541015610a21576040517f08c379a00000000000000000000000000000000000000000000000000000000081526004018080602001828103825260128152602001807f77697468647261773a206e6f7420676f6f64000000000000000000000000000081525060200191505060405180910390fd5b610a2b6000610e8b565b6000610a758260010154610a6764e8d4a51000610a5987600301548760000154611eb290919063ffffffff16565b611f3890919063ffffffff16565b611f8290919063ffffffff16565b9050600081118015610a9657508160020160009054906101000a900460ff16155b15610ae957610ae83382600160009054906101000a900473ffffffffffffffffffffffffffffffffffffffff1673ffffffffffffffffffffffffffffffffffffffff16611fcc9092919063ffffffff16565b5b6000841115610ba757610b09848360000154611f8290919063ffffffff16565b82600001819055507f000000000000000000000000000000000000000000000000000000000000000073ffffffffffffffffffffffffffffffffffffffff16632e1a7d4d856040518263ffffffff1660e01b815260040180828152602001915050600060405180830381600087803b158015610b8457600080fd5b505af1158015610b98573d6000803e3d6000fd5b50505050610ba6338561206e565b5b610bd964e8d4a51000610bcb85600301548560000154611eb290919063ffffffff16565b611f3890919063ffffffff16565b82600101819055503373ffffffffffffffffffffffffffffffffffffffff167f884edad9ce6fa2440d8a54cc123490eb96d2768479d49ff9c7366125a9424364856040518082815260200191505060405180910390a250505050565b610c3d611eaa565b73ffffffffffffffffffffffffffffffffffffffff1660008054906101000a900473ffffffffffffffffffffffffffffffffffffffff1673ffffffffffffffffffffffffffffffffffffffff1614610cfd576040517f08c379a00000000000000000000000000000000000000000000000000000000081526004018080602001828103825260208152602001807f4f776e61626c653a2063616c6c6572206973206e6f7420746865206f776e657281525060200191505060405180910390fd5b600160009054906101000a900473ffffffffffffffffffffffffffffffffffffffff1673ffffffffffffffffffffffffffffffffffffffff166370a08231306040518263ffffffff1660e01b8152600401808273ffffffffffffffffffffffffffffffffffffffff16815260200191505060206040518083038186803b158015610d8657600080fd5b505afa158015610d9a573d6000803e3d6000fd5b505050506040513d6020811015610db057600080fd5b81019080805190602001909291905050508110610e35576040517f08c379a00000000000000000000000000000000000000000000000000000000081526004018080602001828103825260108152602001807f6e6f7420656e6f75676820746f6b656e0000000000000000000000000000000081525060200191505060405180910390fd5b610e823382600160009054906101000a900473ffffffffffffffffffffffffffffffffffffffff1673ffffffffffffffffffffffffffffffffffffffff16611fcc9092919063ffffffff16565b50565b60085481565b600060048281548110610e9a57fe5b9060005260206000209060040201905080600201544311610ebb5750611049565b60008160000160009054906101000a900473ffffffffffffffffffffffffffffffffffffffff1673ffffffffffffffffffffffffffffffffffffffff166370a08231306040518263ffffffff1660e01b8152600401808273ffffffffffffffffffffffffffffffffffffffff16815260200191505060206040518083038186803b158015610f4857600080fd5b505afa158015610f5c573d6000803e3d6000fd5b505050506040513d6020811015610f7257600080fd5b810190808051906020019092919050505090506000811415610f9e574382600201819055505050611049565b6000610fae836002015443611461565b90506000610ff1600754610fe38660010154610fd560035487611eb290919063ffffffff16565b611eb290919063ffffffff16565b611f3890919063ffffffff16565b90506110336110208461101264e8d4a5100085611eb290919063ffffffff16565b611f3890919063ffffffff16565b856003015461213690919063ffffffff16565b8460030181905550438460020181905550505050505b50565b6000600480549050905060005b818110156110755761106a81610e8b565b806001019050611059565b5050565b611081611eaa565b73ffffffffffffffffffffffffffffffffffffffff1660008054906101000a900473ffffffffffffffffffffffffffffffffffffffff1673ffffffffffffffffffffffffffffffffffffffff1614611141576040517f08c379a00000000000000000000000000000000000000000000000000000000081526004018080602001828103825260208152602001807f4f776e61626c653a2063616c6c6572206973206e6f7420746865206f776e657281525060200191505060405180910390fd5b80600260006101000a81548173ffffffffffffffffffffffffffffffffffffffff021916908373ffffffffffffffffffffffffffffffffffffffff16021790555050565b61118d611eaa565b73ffffffffffffffffffffffffffffffffffffffff1660008054906101000a900473ffffffffffffffffffffffffffffffffffffffff1673ffffffffffffffffffffffffffffffffffffffff161461124d576040517f08c379a00000000000000000000000000000000000000000000000000000000081526004018080602001828103825260208152602001807f4f776e61626c653a2063616c6c6572206973206e6f7420746865206f776e657281525060200191505060405180910390fd5b600073ffffffffffffffffffffffffffffffffffffffff1660008054906101000a900473ffffffffffffffffffffffffffffffffffffffff1673ffffffffffffffffffffffffffffffffffffffff167f8be0079c531659141344cd1fd0a4f28419497f9722a3daafe3b4186f6b6457e060405160405180910390a360008060006101000a81548173ffffffffffffffffffffffffffffffffffffffff021916908373ffffffffffffffffffffffffffffffffffffffff160217905550565b600260009054906101000a900473ffffffffffffffffffffffffffffffffffffffff1673ffffffffffffffffffffffffffffffffffffffff163373ffffffffffffffffffffffffffffffffffffffff16146113ce576040517f08c379a000000000000000000000000000000000000000000000000000000000815260040180806020018281038252600b8152602001807f61646d696e3a207775743f00000000000000000000000000000000000000000081525060200191505060405180910390fd5b6001600560008373ffffffffffffffffffffffffffffffffffffffff1673ffffffffffffffffffffffffffffffffffffffff16815260200190815260200160002060020160006101000a81548160ff02191690831515021790555050565b60065481565b60035481565b60008060009054906101000a900473ffffffffffffffffffffffffffffffffffffffff16905090565b600060095482116114865761147f8383611f8290919063ffffffff16565b90506114b0565b600954831061149857600090506114b0565b6114ad83600954611f8290919063ffffffff16565b90505b92915050565b7f000000000000000000000000000000000000000000000000000000000000000081565b600060046000815481106114ea57fe5b906000526020600020906004020190506000600560003373ffffffffffffffffffffffffffffffffffffffff1673ffffffffffffffffffffffffffffffffffffffff168152602001908152602001600020905060065461155734836000015461213690919063ffffffff16565b11156115cb576040517f08c379a000000000000000000000000000000000000000000000000000000000815260040180806020018281038252600e8152602001807f6578636565642074686520746f7000000000000000000000000000000000000081525060200191505060405180910390fd5b8060020160009054906101000a900460ff1615611650576040517f08c379a000000000000000000000000000000000000000000000000000000000815260040180806020018281038252600d8152602001807f696e20626c61636b206c6973740000000000000000000000000000000000000081525060200191505060405180910390fd5b61165a6000610e8b565b60008160000154111561170c5760006116b182600101546116a364e8d4a5100061169587600301548760000154611eb290919063ffffffff16565b611f3890919063ffffffff16565b611f8290919063ffffffff16565b9050600081111561170a576117093382600160009054906101000a900473ffffffffffffffffffffffffffffffffffffffff1673ffffffffffffffffffffffffffffffffffffffff16611fcc9092919063ffffffff16565b5b505b6000341115611888577f000000000000000000000000000000000000000000000000000000000000000073ffffffffffffffffffffffffffffffffffffffff1663d0e30db0346040518263ffffffff1660e01b81526004016000604051808303818588803b15801561177d57600080fd5b505af1158015611791573d6000803e3d6000fd5b50505050507f000000000000000000000000000000000000000000000000000000000000000073ffffffffffffffffffffffffffffffffffffffff1663a9059cbb30346040518363ffffffff1660e01b8152600401808373ffffffffffffffffffffffffffffffffffffffff16815260200182815260200192505050602060405180830381600087803b15801561182757600080fd5b505af115801561183b573d6000803e3d6000fd5b505050506040513d602081101561185157600080fd5b810190808051906020019092919050505061186857fe5b61187f34826000015461213690919063ffffffff16565b81600001819055505b6118ba64e8d4a510006118ac84600301548460000154611eb290919063ffffffff16565b611f3890919063ffffffff16565b81600101819055503373ffffffffffffffffffffffffffffffffffffffff167fe1fffcc4923d04b559f4d29a8bfc6cda04eb5b0d3c460751c2402c5c5cc9109c346040518082815260200191505060405180910390a25050565b6000600460008154811061192457fe5b906000526020600020906004020190506000600560003373ffffffffffffffffffffffffffffffffffffffff1673ffffffffffffffffffffffffffffffffffffffff16815260200190815260200160002090506119ca3382600001548460000160009054906101000a900473ffffffffffffffffffffffffffffffffffffffff1673ffffffffffffffffffffffffffffffffffffffff16611fcc9092919063ffffffff16565b3373ffffffffffffffffffffffffffffffffffffffff167f5fafa99d0643513820be26656b45130b01e1c03062e1266bf36f88cbd3bd969582600001546040518082815260200191505060405180910390a260008160000181905550600081600101819055505050565b600260009054906101000a900473ffffffffffffffffffffffffffffffffffffffff1673ffffffffffffffffffffffffffffffffffffffff163373ffffffffffffffffffffffffffffffffffffffff1614611af7576040517f08c379a000000000000000000000000000000000000000000000000000000000815260040180806020018281038252600b8152602001807f61646d696e3a207775743f00000000000000000000000000000000000000000081525060200191505060405180910390fd5b6000600560008373ffffffffffffffffffffffffffffffffffffffff1673ffffffffffffffffffffffffffffffffffffffff16815260200190815260200160002060020160006101000a81548160ff02191690831515021790555050565b611b5d611eaa565b73ffffffffffffffffffffffffffffffffffffffff1660008054906101000a900473ffffffffffffffffffffffffffffffffffffffff1673ffffffffffffffffffffffffffffffffffffffff1614611c1d576040517f08c379a00000000000000000000000000000000000000000000000000000000081526004018080602001828103825260208152602001807f4f776e61626c653a2063616c6c6572206973206e6f7420746865206f776e657281525060200191505060405180910390fd5b611c26816121be565b50565b6000806004600081548110611c3a57fe5b906000526020600020906004020190506000600560008573ffffffffffffffffffffffffffffffffffffffff1673ffffffffffffffffffffffffffffffffffffffff168152602001908152602001600020905060008260030154905060008360000160009054906101000a900473ffffffffffffffffffffffffffffffffffffffff1673ffffffffffffffffffffffffffffffffffffffff166370a08231306040518263ffffffff1660e01b8152600401808273ffffffffffffffffffffffffffffffffffffffff16815260200191505060206040518083038186803b158015611d2357600080fd5b505afa158015611d37573d6000803e3d6000fd5b505050506040513d6020811015611d4d57600080fd5b81019080805190602001909291905050509050836002015443118015611d74575060008114155b15611e0f576000611d89856002015443611461565b90506000611dcc600754611dbe8860010154611db060035487611eb290919063ffffffff16565b611eb290919063ffffffff16565b611f3890919063ffffffff16565b9050611e0a611dfb84611ded64e8d4a5100085611eb290919063ffffffff16565b611f3890919063ffffffff16565b8561213690919063ffffffff16565b935050505b611e538360010154611e4564e8d4a51000611e37868860000154611eb290919063ffffffff16565b611f3890919063ffffffff16565b611f8290919063ffffffff16565b945050505050919050565b600160009054906101000a900473ffffffffffffffffffffffffffffffffffffffff1681565b600260009054906101000a900473ffffffffffffffffffffffffffffffffffffffff1681565b600033905090565b600080831415611ec55760009050611f32565b6000828402905082848281611ed657fe5b0414611f2d576040517f08c379a00000000000000000000000000000000000000000000000000000000081526004018080602001828103825260218152602001806128306021913960400191505060405180910390fd5b809150505b92915050565b6000611f7a83836040518060400160405280601a81526020017f536166654d6174683a206469766973696f6e206279207a65726f000000000000815250612301565b905092915050565b6000611fc483836040518060400160405280601e81526020017f536166654d6174683a207375627472616374696f6e206f766572666c6f7700008152506123c7565b905092915050565b6120698363a9059cbb60e01b8484604051602401808373ffffffffffffffffffffffffffffffffffffffff16815260200182815260200192505050604051602081830303815290604052907bffffffffffffffffffffffffffffffffffffffffffffffffffffffff19166020820180517bffffffffffffffffffffffffffffffffffffffffffffffffffffffff8381831617835250505050612487565b505050565b60008273ffffffffffffffffffffffffffffffffffffffff166159d883604051806000019050600060405180830381858888f193505050503d80600081146120d2576040519150601f19603f3d011682016040523d82523d6000602084013e6120d7565b606091505b5050905080612131576040517f08c379a00000000000000000000000000000000000000000000000000000000081526004018080602001828103825260238152602001806128516023913960400191505060405180910390fd5b505050565b6000808284019050838110156121b4576040517f08c379a000000000000000000000000000000000000000000000000000000000815260040180806020018281038252601b8152602001807f536166654d6174683a206164646974696f6e206f766572666c6f77000000000081525060200191505060405180910390fd5b8091505092915050565b600073ffffffffffffffffffffffffffffffffffffffff168173ffffffffffffffffffffffffffffffffffffffff161415612244576040517f08c379a000000000000000000000000000000000000000000000000000000000815260040180806020018281038252602681526020018061280a6026913960400191505060405180910390fd5b8073ffffffffffffffffffffffffffffffffffffffff1660008054906101000a900473ffffffffffffffffffffffffffffffffffffffff1673ffffffffffffffffffffffffffffffffffffffff167f8be0079c531659141344cd1fd0a4f28419497f9722a3daafe3b4186f6b6457e060405160405180910390a3806000806101000a81548173ffffffffffffffffffffffffffffffffffffffff021916908373ffffffffffffffffffffffffffffffffffffffff16021790555050565b600080831182906123ad576040517f08c379a00000000000000000000000000000000000000000000000000000000081526004018080602001828103825283818151815260200191508051906020019080838360005b83811015612372578082015181840152602081019050612357565b50505050905090810190601f16801561239f5780820380516001836020036101000a031916815260200191505b509250505060405180910390fd5b5060008385816123b957fe5b049050809150509392505050565b6000838311158290612474576040517f08c379a00000000000000000000000000000000000000000000000000000000081526004018080602001828103825283818151815260200191508051906020019080838360005b8381101561243957808201518184015260208101905061241e565b50505050905090810190601f1680156124665780820380516001836020036101000a031916815260200191505b509250505060405180910390fd5b5060008385039050809150509392505050565b60606124e9826040518060400160405280602081526020017f5361666542455032303a206c6f772d6c6576656c2063616c6c206661696c65648152508573ffffffffffffffffffffffffffffffffffffffff166125769092919063ffffffff16565b90506000815111156125715780806020019051602081101561250a57600080fd5b8101908080519060200190929190505050612570576040517f08c379a000000000000000000000000000000000000000000000000000000000815260040180806020018281038252602a8152602001806127e0602a913960400191505060405180910390fd5b5b505050565b6060612585848460008561258e565b90509392505050565b606061259985612794565b61260b576040517f08c379a000000000000000000000000000000000000000000000000000000000815260040180806020018281038252601d8152602001807f416464726573733a2063616c6c20746f206e6f6e2d636f6e747261637400000081525060200191505060405180910390fd5b600060608673ffffffffffffffffffffffffffffffffffffffff1685876040518082805190602001908083835b6020831061265b5780518252602082019150602081019050602083039250612638565b6001836020036101000a03801982511681845116808217855250505050505090500191505060006040518083038185875af1925050503d80600081146126bd576040519150601f19603f3d011682016040523d82523d6000602084013e6126c2565b606091505b509150915081156126d757809250505061278c565b6000815111156126ea5780518082602001fd5b836040517f08c379a00000000000000000000000000000000000000000000000000000000081526004018080602001828103825283818151815260200191508051906020019080838360005b83811015612751578082015181840152602081019050612736565b50505050905090810190601f16801561277e5780820380516001836020036101000a031916815260200191505b509250505060405180910390fd5b949350505050565b60008060007fc5d2460186f7233c927e7db2dcc703c0e500b653ca82273b7bfad8045d85a47060001b9050833f91508082141580156127d657506000801b8214155b9250505091905056fe5361666542455032303a204245503230206f7065726174696f6e20646964206e6f7420737563636565644f776e61626c653a206e6577206f776e657220697320746865207a65726f2061646472657373536166654d6174683a206d756c7469706c69636174696f6e206f766572666c6f775472616e7366657248656c7065723a204554485f5452414e534645525f4641494c4544a26469706673582212201af9f8c18b26d7aaeb3190ce7dedacbcf55fdd80606cc77b37d8a7938193b21664736f6c634300060c0033",
  "devdoc": {
    "kind": "dev",
    "methods": {
      "owner()": {
        "details": "Returns the address of the current owner."
      },
      "renounceOwnership()": {
        "details": "Leaves the contract without owner. It will not be possible to call `onlyOwner` functions anymore. Can only be called by the current owner. NOTE: Renouncing ownership will leave the contract without an owner, thereby removing any functionality that is only available to the owner."
      },
      "transferOwnership(address)": {
        "details": "Transfers ownership of the contract to a new account (`newOwner`). Can only be called by the current owner."
      }
    },
    "version": 1
  },
  "userdoc": {
    "kind": "user",
    "methods": {},
    "version": 1
  },
  "storageLayout": {
    "storage": [
      {
        "astId": 34,
        "contract": "contracts/BnbStaking.sol:BnbStaking",
        "label": "_owner",
        "offset": 0,
        "slot": "0",
        "type": "t_address"
      },
      {
        "astId": 983,
        "contract": "contracts/BnbStaking.sol:BnbStaking",
        "label": "rewardToken",
        "offset": 0,
        "slot": "1",
        "type": "t_contract(IBEP20)516"
      },
      {
        "astId": 985,
        "contract": "contracts/BnbStaking.sol:BnbStaking",
        "label": "adminAddress",
        "offset": 0,
        "slot": "2",
        "type": "t_address"
      },
      {
        "astId": 989,
        "contract": "contracts/BnbStaking.sol:BnbStaking",
        "label": "rewardPerBlock",
        "offset": 0,
        "slot": "3",
        "type": "t_uint256"
      },
      {
        "astId": 992,
        "contract": "contracts/BnbStaking.sol:BnbStaking",
        "label": "poolInfo",
        "offset": 0,
        "slot": "4",
        "type": "t_array(t_struct(PoolInfo)981_storage)dyn_storage"
      },
      {
        "astId": 996,
        "contract": "contracts/BnbStaking.sol:BnbStaking",
        "label": "userInfo",
        "offset": 0,
        "slot": "5",
        "type": "t_mapping(t_address,t_struct(UserInfo)972_storage)"
      },
      {
        "astId": 999,
        "contract": "contracts/BnbStaking.sol:BnbStaking",
        "label": "limitAmount",
        "offset": 0,
        "slot": "6",
        "type": "t_uint256"
      },
      {
        "astId": 1002,
        "contract": "contracts/BnbStaking.sol:BnbStaking",
        "label": "totalAllocPoint",
        "offset": 0,
        "slot": "7",
        "type": "t_uint256"
      },
      {
        "astId": 1004,
        "contract": "contracts/BnbStaking.sol:BnbStaking",
        "label": "startBlock",
        "offset": 0,
        "slot": "8",
        "type": "t_uint256"
      },
      {
        "astId": 1006,
        "contract": "contracts/BnbStaking.sol:BnbStaking",
        "label": "bonusEndBlock",
        "offset": 0,
        "slot": "9",
        "type": "t_uint256"
      }
    ],
    "types": {
      "t_address": {
        "encoding": "inplace",
        "label": "address",
        "numberOfBytes": "20"
      },
      "t_array(t_struct(PoolInfo)981_storage)dyn_storage": {
        "base": "t_struct(PoolInfo)981_storage",
        "encoding": "dynamic_array",
        "label": "struct BnbStaking.PoolInfo[]",
        "numberOfBytes": "32"
      },
      "t_bool": {
        "encoding": "inplace",
        "label": "bool",
        "numberOfBytes": "1"
      },
      "t_contract(IBEP20)516": {
        "encoding": "inplace",
        "label": "contract IBEP20",
        "numberOfBytes": "20"
      },
      "t_mapping(t_address,t_struct(UserInfo)972_storage)": {
        "encoding": "mapping",
        "key": "t_address",
        "label": "mapping(address => struct BnbStaking.UserInfo)",
        "numberOfBytes": "32",
        "value": "t_struct(UserInfo)972_storage"
      },
      "t_struct(PoolInfo)981_storage": {
        "encoding": "inplace",
        "label": "struct BnbStaking.PoolInfo",
        "members": [
          {
            "astId": 974,
            "contract": "contracts/BnbStaking.sol:BnbStaking",
            "label": "lpToken",
            "offset": 0,
            "slot": "0",
            "type": "t_contract(IBEP20)516"
          },
          {
            "astId": 976,
            "contract": "contracts/BnbStaking.sol:BnbStaking",
            "label": "allocPoint",
            "offset": 0,
            "slot": "1",
            "type": "t_uint256"
          },
          {
            "astId": 978,
            "contract": "contracts/BnbStaking.sol:BnbStaking",
            "label": "lastRewardBlock",
            "offset": 0,
            "slot": "2",
            "type": "t_uint256"
          },
          {
            "astId": 980,
            "contract": "contracts/BnbStaking.sol:BnbStaking",
            "label": "accCakePerShare",
            "offset": 0,
            "slot": "3",
            "type": "t_uint256"
          }
        ],
        "numberOfBytes": "128"
      },
      "t_struct(UserInfo)972_storage": {
        "encoding": "inplace",
        "label": "struct BnbStaking.UserInfo",
        "members": [
          {
            "astId": 967,
            "contract": "contracts/BnbStaking.sol:BnbStaking",
            "label": "amount",
            "offset": 0,
            "slot": "0",
            "type": "t_uint256"
          },
          {
            "astId": 969,
            "contract": "contracts/BnbStaking.sol:BnbStaking",
            "label": "rewardDebt",
            "offset": 0,
            "slot": "1",
            "type": "t_uint256"
          },
          {
            "astId": 971,
            "contract": "contracts/BnbStaking.sol:BnbStaking",
            "label": "inBlackList",
            "offset": 0,
            "slot": "2",
            "type": "t_bool"
          }
        ],
        "numberOfBytes": "96"
      },
      "t_uint256": {
        "encoding": "inplace",
        "label": "uint256",
        "numberOfBytes": "32"
      }
    }
  }
}